{
  "_format": "hh-sol-artifact-1",
  "contractName": "Voting",
  "sourceName": "contracts/Voting.sol",
  "abi": [
    {
      "inputs": [
        {
          "internalType": "bytes",
          "name": "_backendKey",
          "type": "bytes"
        }
      ],
      "stateMutability": "nonpayable",
      "type": "constructor"
    },
    {
      "inputs": [
        {
          "internalType": "address",
          "name": "_candidateAddress",
          "type": "address"
        },
        {
          "internalType": "string",
          "name": "_name",
          "type": "string"
        }
      ],
      "name": "addCandidate",
      "outputs": [],
      "stateMutability": "nonpayable",
      "type": "function"
    },
    {
      "inputs": [
        {
          "internalType": "address",
          "name": "_voter",
          "type": "address"
        }
      ],
      "name": "addVoter",
      "outputs": [],
      "stateMutability": "nonpayable",
      "type": "function"
    },
    {
      "inputs": [],
      "name": "backendKey",
      "outputs": [
        {
          "internalType": "bytes",
          "name": "",
          "type": "bytes"
        }
      ],
      "stateMutability": "view",
      "type": "function"
    },
    {
      "inputs": [
        {
          "internalType": "uint256",
          "name": "",
          "type": "uint256"
        }
      ],
      "name": "candidateAddresses",
      "outputs": [
        {
          "internalType": "address",
          "name": "",
          "type": "address"
        }
      ],
      "stateMutability": "view",
      "type": "function"
    },
    {
      "inputs": [
        {
          "internalType": "address",
          "name": "",
          "type": "address"
        }
      ],
      "name": "candidates",
      "outputs": [
        {
          "internalType": "string",
          "name": "name",
          "type": "string"
        },
        {
          "internalType": "uint256",
          "name": "voteCount",
          "type": "uint256"
        }
      ],
      "stateMutability": "view",
      "type": "function"
    },
    {
      "inputs": [
        {
          "internalType": "address",
          "name": "_candidateAddress",
          "type": "address"
        }
      ],
      "name": "deleteCandidate",
      "outputs": [],
      "stateMutability": "nonpayable",
      "type": "function"
    },
    {
      "inputs": [],
      "name": "electionRunning",
      "outputs": [
        {
          "internalType": "bool",
          "name": "",
          "type": "bool"
        }
      ],
      "stateMutability": "view",
      "type": "function"
    },
    {
      "inputs": [],
      "name": "endElection",
      "outputs": [],
      "stateMutability": "nonpayable",
      "type": "function"
    },
    {
      "inputs": [],
      "name": "getAllCandidates",
      "outputs": [
        {
          "internalType": "address[]",
          "name": "",
          "type": "address[]"
        },
        {
          "internalType": "string[]",
          "name": "",
          "type": "string[]"
        },
        {
          "internalType": "uint256[]",
          "name": "",
          "type": "uint256[]"
        }
      ],
      "stateMutability": "view",
      "type": "function"
    },
    {
      "inputs": [],
      "name": "getAllVoters",
      "outputs": [
        {
          "internalType": "address[]",
          "name": "",
          "type": "address[]"
        },
        {
          "internalType": "bool[]",
          "name": "",
          "type": "bool[]"
        },
        {
          "internalType": "bool[]",
          "name": "",
          "type": "bool[]"
        },
        {
          "internalType": "address[]",
          "name": "",
          "type": "address[]"
        }
      ],
      "stateMutability": "view",
      "type": "function"
    },
    {
      "inputs": [
        {
          "internalType": "address",
          "name": "_candidateAddress",
          "type": "address"
        }
      ],
      "name": "getCandidate",
      "outputs": [
        {
          "internalType": "string",
          "name": "",
          "type": "string"
        },
        {
          "internalType": "uint256",
          "name": "",
          "type": "uint256"
        }
      ],
      "stateMutability": "view",
      "type": "function"
    },
    {
      "inputs": [],
      "name": "getTotalVotes",
      "outputs": [
        {
          "internalType": "uint256[]",
          "name": "",
          "type": "uint256[]"
        }
      ],
      "stateMutability": "view",
      "type": "function"
    },
    {
      "inputs": [
        {
          "internalType": "address",
          "name": "_voter",
          "type": "address"
        }
      ],
      "name": "getVoterInfo",
      "outputs": [
        {
          "internalType": "bool",
          "name": "",
          "type": "bool"
        },
        {
          "internalType": "bool",
          "name": "",
          "type": "bool"
        },
        {
          "internalType": "address",
          "name": "",
          "type": "address"
        }
      ],
      "stateMutability": "view",
      "type": "function"
    },
    {
      "inputs": [],
      "name": "owner",
      "outputs": [
        {
          "internalType": "address",
          "name": "",
          "type": "address"
        }
      ],
      "stateMutability": "view",
      "type": "function"
    },
    {
      "inputs": [],
      "name": "resetElection",
      "outputs": [],
      "stateMutability": "nonpayable",
      "type": "function"
    },
    {
      "inputs": [],
      "name": "startElection",
      "outputs": [],
      "stateMutability": "nonpayable",
      "type": "function"
    },
    {
      "inputs": [
        {
          "internalType": "address",
          "name": "_voter",
          "type": "address"
        },
        {
          "internalType": "bytes",
          "name": "_backendKey",
          "type": "bytes"
        }
      ],
      "name": "validateVote",
      "outputs": [],
      "stateMutability": "nonpayable",
      "type": "function"
    },
    {
      "inputs": [
        {
          "internalType": "address",
          "name": "_candidateAddress",
          "type": "address"
        }
      ],
      "name": "vote",
      "outputs": [],
      "stateMutability": "nonpayable",
      "type": "function"
    },
    {
      "inputs": [
        {
          "internalType": "uint256",
          "name": "",
          "type": "uint256"
        }
      ],
      "name": "voterAddresses",
      "outputs": [
        {
          "internalType": "address",
          "name": "",
          "type": "address"
        }
      ],
      "stateMutability": "view",
      "type": "function"
    },
    {
      "inputs": [
        {
          "internalType": "address",
          "name": "",
          "type": "address"
        }
      ],
      "name": "voters",
      "outputs": [
        {
          "internalType": "bool",
          "name": "hasVoted",
          "type": "bool"
        },
        {
          "internalType": "bool",
          "name": "isValidated",
          "type": "bool"
        },
        {
          "internalType": "address",
          "name": "votedCandidate",
          "type": "address"
        }
      ],
      "stateMutability": "view",
      "type": "function"
    }
  ],
  "bytecode": "0x60806040526000600460146101000a81548160ff0219169083151502179055503480156200002c57600080fd5b5060405162003a7c38038062003a7c83398181016040528101906200005291906200023f565b33600460006101000a81548173ffffffffffffffffffffffffffffffffffffffff021916908373ffffffffffffffffffffffffffffffffffffffff1602179055508060059081620000a49190620004db565b5050620005c2565b6000604051905090565b600080fd5b600080fd5b600080fd5b600080fd5b6000601f19601f8301169050919050565b7f4e487b7100000000000000000000000000000000000000000000000000000000600052604160045260246000fd5b6200011582620000ca565b810181811067ffffffffffffffff82111715620001375762000136620000db565b5b80604052505050565b60006200014c620000ac565b90506200015a82826200010a565b919050565b600067ffffffffffffffff8211156200017d576200017c620000db565b5b6200018882620000ca565b9050602081019050919050565b60005b83811015620001b557808201518184015260208101905062000198565b60008484015250505050565b6000620001d8620001d2846200015f565b62000140565b905082815260208101848484011115620001f757620001f6620000c5565b5b6200020484828562000195565b509392505050565b600082601f830112620002245762000223620000c0565b5b815162000236848260208601620001c1565b91505092915050565b600060208284031215620002585762000257620000b6565b5b600082015167ffffffffffffffff811115620002795762000278620000bb565b5b62000287848285016200020c565b91505092915050565b600081519050919050565b7f4e487b7100000000000000000000000000000000000000000000000000000000600052602260045260246000fd5b60006002820490506001821680620002e357607f821691505b602082108103620002f957620002f86200029b565b5b50919050565b60008190508160005260206000209050919050565b60006020601f8301049050919050565b600082821b905092915050565b600060088302620003637fffffffffffffffffffffffffffffffffffffffffffffffffffffffffffffffff8262000324565b6200036f868362000324565b95508019841693508086168417925050509392505050565b6000819050919050565b6000819050919050565b6000620003bc620003b6620003b08462000387565b62000391565b62000387565b9050919050565b6000819050919050565b620003d8836200039b565b620003f0620003e782620003c3565b84845462000331565b825550505050565b600090565b62000407620003f8565b62000414818484620003cd565b505050565b5b818110156200043c5762000430600082620003fd565b6001810190506200041a565b5050565b601f8211156200048b576200045581620002ff565b620004608462000314565b8101602085101562000470578190505b620004886200047f8562000314565b83018262000419565b50505b505050565b600082821c905092915050565b6000620004b06000198460080262000490565b1980831691505092915050565b6000620004cb83836200049d565b9150826002028217905092915050565b620004e68262000290565b67ffffffffffffffff811115620005025762000501620000db565b5b6200050e8254620002ca565b6200051b82828562000440565b600060209050601f8311600181146200055357600084156200053e578287015190505b6200054a8582620004bd565b865550620005ba565b601f1984166200056386620002ff565b60005b828110156200058d5784890151825560018201915060208501945060208101905062000566565b86831015620005ad5784890151620005a9601f8916826200049d565b8355505b6001600288020188555050505b505050505050565b6134aa80620005d26000396000f3fe608060405234801561001057600080fd5b506004361061012c5760003560e01c80639a0e7d66116100ad578063d55d73c511610071578063d55d73c514610316578063d655d58e14610346578063dd0e237314610364578063e8f3052314610394578063f4ab9adf1461039e5761012c565b80639a0e7d66146102475780639a594f06146102655780639ed1f25514610281578063a3ec138d146102b3578063b7adcf1d146102e55761012c565b806362d73eb8116100f457806362d73eb8146101b65780636dd7d8ea146101c05780638ab66a90146101dc5780638da5cb5b1461020d57806395f11ce61461022b5761012c565b806313086ec9146101315780632e6997fe1461014f57806335bbe70e1461016f578063392dc4fd1461019057806359f78468146101ac575b600080fd5b6101396103ba565b6040516101469190612254565b60405180910390f35b6101576103cd565b60405161016693929190612579565b60405180910390f35b6101776106bf565b6040516101879493929190612683565b60405180910390f35b6101aa60048036038101906101a59190612859565b610a33565b005b6101b4610d5e565b005b6101be610e0b565b005b6101da60048036038101906101d591906128b5565b610f61565b005b6101f660048036038101906101f191906128b5565b611209565b60405161020492919061293b565b60405180910390f35b6102156112b5565b604051610222919061297a565b60405180910390f35b610245600480360381019061024091906128b5565b6112db565b005b61024f6115de565b60405161025c9190612995565b60405180910390f35b61027f600480360381019061027a9190612a58565b6116fc565b005b61029b600480360381019061029691906128b5565b6118fa565b6040516102aa93929190612ab4565b60405180910390f35b6102cd60048036038101906102c891906128b5565b6119f5565b6040516102dc93929190612ab4565b60405180910390f35b6102ff60048036038101906102fa91906128b5565b611a59565b60405161030d92919061293b565b60405180910390f35b610330600480360381019061032b9190612b17565b611be9565b60405161033d919061297a565b60405180910390f35b61034e611c28565b60405161035b9190612b99565b60405180910390f35b61037e60048036038101906103799190612b17565b611cb6565b60405161038b919061297a565b60405180910390f35b61039c611cf5565b005b6103b860048036038101906103b391906128b5565b611fe5565b005b600460149054906101000a900460ff1681565b6060806060600060028054905067ffffffffffffffff8111156103f3576103f261272e565b5b60405190808252806020026020018201604052801561042657816020015b60608152602001906001900390816104115790505b509050600060028054905067ffffffffffffffff81111561044a5761044961272e565b5b6040519080825280602002602001820160405280156104785781602001602082028036833780820191505090505b50905060005b600280549050811015610625576000600282815481106104a1576104a0612bbb565b5b9060005260206000200160009054906101000a900473ffffffffffffffffffffffffffffffffffffffff1690506000808273ffffffffffffffffffffffffffffffffffffffff1673ffffffffffffffffffffffffffffffffffffffff168152602001908152602001600020600001805461051a90612c19565b80601f016020809104026020016040519081016040528092919081815260200182805461054690612c19565b80156105935780601f1061056857610100808354040283529160200191610593565b820191906000526020600020905b81548152906001019060200180831161057657829003601f168201915b50505050508483815181106105ab576105aa612bbb565b5b60200260200101819052506000808273ffffffffffffffffffffffffffffffffffffffff1673ffffffffffffffffffffffffffffffffffffffff1681526020019081526020016000206001015483838151811061060b5761060a612bbb565b5b60200260200101818152505050808060010191505061047e565b5060028282828054806020026020016040519081016040528092919081815260200182805480156106ab57602002820191906000526020600020905b8160009054906101000a900473ffffffffffffffffffffffffffffffffffffffff1673ffffffffffffffffffffffffffffffffffffffff1681526020019060010190808311610661575b505050505092509450945094505050909192565b6060806060806000600380549050905060008167ffffffffffffffff8111156106eb576106ea61272e565b5b6040519080825280602002602001820160405280156107195781602001602082028036833780820191505090505b50905060008267ffffffffffffffff8111156107385761073761272e565b5b6040519080825280602002602001820160405280156107665781602001602082028036833780820191505090505b50905060008367ffffffffffffffff8111156107855761078461272e565b5b6040519080825280602002602001820160405280156107b35781602001602082028036833780820191505090505b50905060005b84811015610993576000600382815481106107d7576107d6612bbb565b5b9060005260206000200160009054906101000a900473ffffffffffffffffffffffffffffffffffffffff1690506000600160008373ffffffffffffffffffffffffffffffffffffffff1673ffffffffffffffffffffffffffffffffffffffff1681526020019081526020016000206040518060600160405290816000820160009054906101000a900460ff161515151581526020016000820160019054906101000a900460ff161515151581526020016000820160029054906101000a900473ffffffffffffffffffffffffffffffffffffffff1673ffffffffffffffffffffffffffffffffffffffff1673ffffffffffffffffffffffffffffffffffffffff1681525050905080600001518684815181106108f6576108f5612bbb565b5b60200260200101901515908115158152505080602001518584815181106109205761091f612bbb565b5b602002602001019015159081151581525050806040015184848151811061094a57610949612bbb565b5b602002602001019073ffffffffffffffffffffffffffffffffffffffff16908173ffffffffffffffffffffffffffffffffffffffff1681525050505080806001019150506107b9565b50600383838383805480602002602001604051908101604052809291908181526020018280548015610a1a57602002820191906000526020600020905b8160009054906101000a900473ffffffffffffffffffffffffffffffffffffffff1673ffffffffffffffffffffffffffffffffffffffff16815260200190600101908083116109d0575b5050505050935097509750975097505050505090919293565b600460009054906101000a900473ffffffffffffffffffffffffffffffffffffffff1673ffffffffffffffffffffffffffffffffffffffff163373ffffffffffffffffffffffffffffffffffffffff1614610ac3576040517f08c379a0000000000000000000000000000000000000000000000000000000008152600401610aba90612cbc565b60405180910390fd5b80805190602001206005604051610ada9190612d7f565b604051809103902014610b22576040517f08c379a0000000000000000000000000000000000000000000000000000000008152600401610b1990612de2565b60405180910390fd5b600160008373ffffffffffffffffffffffffffffffffffffffff1673ffffffffffffffffffffffffffffffffffffffff16815260200190815260200160002060000160009054906101000a900460ff16610bb1576040517f08c379a0000000000000000000000000000000000000000000000000000000008152600401610ba890612e4e565b60405180910390fd5b600160008373ffffffffffffffffffffffffffffffffffffffff1673ffffffffffffffffffffffffffffffffffffffff16815260200190815260200160002060000160019054906101000a900460ff1615610c41576040517f08c379a0000000000000000000000000000000000000000000000000000000008152600401610c3890612eba565b60405180910390fd5b60018060008473ffffffffffffffffffffffffffffffffffffffff1673ffffffffffffffffffffffffffffffffffffffff16815260200190815260200160002060000160016101000a81548160ff0219169083151502179055506000600160008473ffffffffffffffffffffffffffffffffffffffff1673ffffffffffffffffffffffffffffffffffffffff16815260200190815260200160002060000160029054906101000a900473ffffffffffffffffffffffffffffffffffffffff1690506000808273ffffffffffffffffffffffffffffffffffffffff1673ffffffffffffffffffffffffffffffffffffffff1681526020019081526020016000206001016000815480929190610d5490612f09565b9190505550505050565b600460009054906101000a900473ffffffffffffffffffffffffffffffffffffffff1673ffffffffffffffffffffffffffffffffffffffff163373ffffffffffffffffffffffffffffffffffffffff1614610dee576040517f08c379a0000000000000000000000000000000000000000000000000000000008152600401610de590612cbc565b60405180910390fd5b6000600460146101000a81548160ff021916908315150217905550565b600460009054906101000a900473ffffffffffffffffffffffffffffffffffffffff1673ffffffffffffffffffffffffffffffffffffffff163373ffffffffffffffffffffffffffffffffffffffff1614610e9b576040517f08c379a0000000000000000000000000000000000000000000000000000000008152600401610e9290612cbc565b60405180910390fd5b60005b600280549050811015610f4357600060028281548110610ec157610ec0612bbb565b5b9060005260206000200160009054906101000a900473ffffffffffffffffffffffffffffffffffffffff16905060008060008373ffffffffffffffffffffffffffffffffffffffff1673ffffffffffffffffffffffffffffffffffffffff16815260200190815260200160002060010181905550508080600101915050610e9e565b506001600460146101000a81548160ff021916908315150217905550565b600460149054906101000a900460ff16610fb0576040517f08c379a0000000000000000000000000000000000000000000000000000000008152600401610fa790612fc3565b60405180910390fd5b600160003373ffffffffffffffffffffffffffffffffffffffff1673ffffffffffffffffffffffffffffffffffffffff16815260200190815260200160002060000160009054906101000a900460ff1615611040576040517f08c379a00000000000000000000000000000000000000000000000000000000081526004016110379061302f565b60405180910390fd5b60008060008373ffffffffffffffffffffffffffffffffffffffff1673ffffffffffffffffffffffffffffffffffffffff168152602001908152602001600020600001805461108e90612c19565b9050036110d0576040517f08c379a00000000000000000000000000000000000000000000000000000000081526004016110c79061309b565b60405180910390fd5b60018060003373ffffffffffffffffffffffffffffffffffffffff1673ffffffffffffffffffffffffffffffffffffffff16815260200190815260200160002060000160006101000a81548160ff0219169083151502179055506000600160003373ffffffffffffffffffffffffffffffffffffffff1673ffffffffffffffffffffffffffffffffffffffff16815260200190815260200160002060000160016101000a81548160ff02191690831515021790555080600160003373ffffffffffffffffffffffffffffffffffffffff1673ffffffffffffffffffffffffffffffffffffffff16815260200190815260200160002060000160026101000a81548173ffffffffffffffffffffffffffffffffffffffff021916908373ffffffffffffffffffffffffffffffffffffffff16021790555050565b600060205280600052604060002060009150905080600001805461122c90612c19565b80601f016020809104026020016040519081016040528092919081815260200182805461125890612c19565b80156112a55780601f1061127a576101008083540402835291602001916112a5565b820191906000526020600020905b81548152906001019060200180831161128857829003601f168201915b5050505050908060010154905082565b600460009054906101000a900473ffffffffffffffffffffffffffffffffffffffff1681565b600460009054906101000a900473ffffffffffffffffffffffffffffffffffffffff1673ffffffffffffffffffffffffffffffffffffffff163373ffffffffffffffffffffffffffffffffffffffff161461136b576040517f08c379a000000000000000000000000000000000000000000000000000000000815260040161136290612cbc565b60405180910390fd5b60008060008373ffffffffffffffffffffffffffffffffffffffff1673ffffffffffffffffffffffffffffffffffffffff16815260200190815260200160002060000180546113b990612c19565b9050036113fb576040517f08c379a00000000000000000000000000000000000000000000000000000000081526004016113f290613107565b60405180910390fd5b6000808273ffffffffffffffffffffffffffffffffffffffff1673ffffffffffffffffffffffffffffffffffffffff1681526020019081526020016000206000808201600061144a91906121dc565b6001820160009055505060005b6002805490508110156115da578173ffffffffffffffffffffffffffffffffffffffff166002828154811061148f5761148e612bbb565b5b9060005260206000200160009054906101000a900473ffffffffffffffffffffffffffffffffffffffff1673ffffffffffffffffffffffffffffffffffffffff16036115cd57600260016002805490506114e99190613127565b815481106114fa576114f9612bbb565b5b9060005260206000200160009054906101000a900473ffffffffffffffffffffffffffffffffffffffff166002828154811061153957611538612bbb565b5b9060005260206000200160006101000a81548173ffffffffffffffffffffffffffffffffffffffff021916908373ffffffffffffffffffffffffffffffffffffffff16021790555060028054806115935761159261315b565b5b6001900381819060005260206000200160006101000a81549073ffffffffffffffffffffffffffffffffffffffff021916905590556115da565b8080600101915050611457565b5050565b6060600060028054905067ffffffffffffffff8111156116015761160061272e565b5b60405190808252806020026020018201604052801561162f5781602001602082028036833780820191505090505b50905060005b6002805490508110156116f45760006002828154811061165857611657612bbb565b5b9060005260206000200160009054906101000a900473ffffffffffffffffffffffffffffffffffffffff1690506000808273ffffffffffffffffffffffffffffffffffffffff1673ffffffffffffffffffffffffffffffffffffffff168152602001908152602001600020600101548383815181106116da576116d9612bbb565b5b602002602001018181525050508080600101915050611635565b508091505090565b600460009054906101000a900473ffffffffffffffffffffffffffffffffffffffff1673ffffffffffffffffffffffffffffffffffffffff163373ffffffffffffffffffffffffffffffffffffffff161461178c576040517f08c379a000000000000000000000000000000000000000000000000000000000815260040161178390612cbc565b60405180910390fd5b60008060008473ffffffffffffffffffffffffffffffffffffffff1673ffffffffffffffffffffffffffffffffffffffff16815260200190815260200160002060000180546117da90612c19565b90501461181c576040517f08c379a0000000000000000000000000000000000000000000000000000000008152600401611813906131d6565b60405180910390fd5b604051806040016040528082815260200160008152506000808473ffffffffffffffffffffffffffffffffffffffff1673ffffffffffffffffffffffffffffffffffffffff168152602001908152602001600020600082015181600001908161188591906133a2565b50602082015181600101559050506002829080600181540180825580915050600190039060005260206000200160009091909190916101000a81548173ffffffffffffffffffffffffffffffffffffffff021916908373ffffffffffffffffffffffffffffffffffffffff1602179055505050565b600080600080600160008673ffffffffffffffffffffffffffffffffffffffff1673ffffffffffffffffffffffffffffffffffffffff1681526020019081526020016000206040518060600160405290816000820160009054906101000a900460ff161515151581526020016000820160019054906101000a900460ff161515151581526020016000820160029054906101000a900473ffffffffffffffffffffffffffffffffffffffff1673ffffffffffffffffffffffffffffffffffffffff1673ffffffffffffffffffffffffffffffffffffffff16815250509050806000015181602001518260400151935093509350509193909250565b60016020528060005260406000206000915090508060000160009054906101000a900460ff16908060000160019054906101000a900460ff16908060000160029054906101000a900473ffffffffffffffffffffffffffffffffffffffff16905083565b60606000806000808573ffffffffffffffffffffffffffffffffffffffff1673ffffffffffffffffffffffffffffffffffffffff1681526020019081526020016000206000018054611aaa90612c19565b905003611aec576040517f08c379a0000000000000000000000000000000000000000000000000000000008152600401611ae39061309b565b60405180910390fd5b60008060008573ffffffffffffffffffffffffffffffffffffffff1673ffffffffffffffffffffffffffffffffffffffff168152602001908152602001600020604051806040016040529081600082018054611b4790612c19565b80601f0160208091040260200160405190810160405280929190818152602001828054611b7390612c19565b8015611bc05780601f10611b9557610100808354040283529160200191611bc0565b820191906000526020600020905b815481529060010190602001808311611ba357829003601f168201915b505050505081526020016001820154815250509050806000015181602001519250925050915091565b60028181548110611bf957600080fd5b906000526020600020016000915054906101000a900473ffffffffffffffffffffffffffffffffffffffff1681565b60058054611c3590612c19565b80601f0160208091040260200160405190810160405280929190818152602001828054611c6190612c19565b8015611cae5780601f10611c8357610100808354040283529160200191611cae565b820191906000526020600020905b815481529060010190602001808311611c9157829003601f168201915b505050505081565b60038181548110611cc657600080fd5b906000526020600020016000915054906101000a900473ffffffffffffffffffffffffffffffffffffffff1681565b600460009054906101000a900473ffffffffffffffffffffffffffffffffffffffff1673ffffffffffffffffffffffffffffffffffffffff163373ffffffffffffffffffffffffffffffffffffffff1614611d85576040517f08c379a0000000000000000000000000000000000000000000000000000000008152600401611d7c90612cbc565b60405180910390fd5b60005b600280549050811015611e2d57600060028281548110611dab57611daa612bbb565b5b9060005260206000200160009054906101000a900473ffffffffffffffffffffffffffffffffffffffff16905060008060008373ffffffffffffffffffffffffffffffffffffffff1673ffffffffffffffffffffffffffffffffffffffff16815260200190815260200160002060010181905550508080600101915050611d88565b5060005b600380549050811015611fc757600060038281548110611e5457611e53612bbb565b5b9060005260206000200160009054906101000a900473ffffffffffffffffffffffffffffffffffffffff1690506000600160008373ffffffffffffffffffffffffffffffffffffffff1673ffffffffffffffffffffffffffffffffffffffff16815260200190815260200160002060000160006101000a81548160ff0219169083151502179055506000600160008373ffffffffffffffffffffffffffffffffffffffff1673ffffffffffffffffffffffffffffffffffffffff16815260200190815260200160002060000160016101000a81548160ff0219169083151502179055506000600160008373ffffffffffffffffffffffffffffffffffffffff1673ffffffffffffffffffffffffffffffffffffffff16815260200190815260200160002060000160026101000a81548173ffffffffffffffffffffffffffffffffffffffff021916908373ffffffffffffffffffffffffffffffffffffffff160217905550508080600101915050611e31565b506000600460146101000a81548160ff021916908315150217905550565b600460009054906101000a900473ffffffffffffffffffffffffffffffffffffffff1673ffffffffffffffffffffffffffffffffffffffff163373ffffffffffffffffffffffffffffffffffffffff1614612075576040517f08c379a000000000000000000000000000000000000000000000000000000000815260040161206c90612cbc565b60405180910390fd5b6040518060600160405280600015158152602001600015158152602001600073ffffffffffffffffffffffffffffffffffffffff16815250600160008373ffffffffffffffffffffffffffffffffffffffff1673ffffffffffffffffffffffffffffffffffffffff16815260200190815260200160002060008201518160000160006101000a81548160ff02191690831515021790555060208201518160000160016101000a81548160ff02191690831515021790555060408201518160000160026101000a81548173ffffffffffffffffffffffffffffffffffffffff021916908373ffffffffffffffffffffffffffffffffffffffff1602179055509050506003819080600181540180825580915050600190039060005260206000200160009091909190916101000a81548173ffffffffffffffffffffffffffffffffffffffff021916908373ffffffffffffffffffffffffffffffffffffffff16021790555050565b5080546121e890612c19565b6000825580601f106121fa5750612219565b601f016020900490600052602060002090810190612218919061221c565b5b50565b5b8082111561223557600081600090555060010161221d565b5090565b60008115159050919050565b61224e81612239565b82525050565b60006020820190506122696000830184612245565b92915050565b600081519050919050565b600082825260208201905092915050565b6000819050602082019050919050565b600073ffffffffffffffffffffffffffffffffffffffff82169050919050565b60006122c68261229b565b9050919050565b6122d6816122bb565b82525050565b60006122e883836122cd565b60208301905092915050565b6000602082019050919050565b600061230c8261226f565b612316818561227a565b93506123218361228b565b8060005b8381101561235257815161233988826122dc565b9750612344836122f4565b925050600181019050612325565b5085935050505092915050565b600081519050919050565b600082825260208201905092915050565b6000819050602082019050919050565b600081519050919050565b600082825260208201905092915050565b60005b838110156123c55780820151818401526020810190506123aa565b60008484015250505050565b6000601f19601f8301169050919050565b60006123ed8261238b565b6123f78185612396565b93506124078185602086016123a7565b612410816123d1565b840191505092915050565b600061242783836123e2565b905092915050565b6000602082019050919050565b60006124478261235f565b612451818561236a565b9350836020820285016124638561237b565b8060005b8581101561249f5784840389528151612480858261241b565b945061248b8361242f565b925060208a01995050600181019050612467565b50829750879550505050505092915050565b600081519050919050565b600082825260208201905092915050565b6000819050602082019050919050565b6000819050919050565b6124f0816124dd565b82525050565b600061250283836124e7565b60208301905092915050565b6000602082019050919050565b6000612526826124b1565b61253081856124bc565b935061253b836124cd565b8060005b8381101561256c57815161255388826124f6565b975061255e8361250e565b92505060018101905061253f565b5085935050505092915050565b600060608201905081810360008301526125938186612301565b905081810360208301526125a7818561243c565b905081810360408301526125bb818461251b565b9050949350505050565b600081519050919050565b600082825260208201905092915050565b6000819050602082019050919050565b6125fa81612239565b82525050565b600061260c83836125f1565b60208301905092915050565b6000602082019050919050565b6000612630826125c5565b61263a81856125d0565b9350612645836125e1565b8060005b8381101561267657815161265d8882612600565b975061266883612618565b925050600181019050612649565b5085935050505092915050565b6000608082019050818103600083015261269d8187612301565b905081810360208301526126b18186612625565b905081810360408301526126c58185612625565b905081810360608301526126d98184612301565b905095945050505050565b6000604051905090565b600080fd5b600080fd5b612701816122bb565b811461270c57600080fd5b50565b60008135905061271e816126f8565b92915050565b600080fd5b600080fd5b7f4e487b7100000000000000000000000000000000000000000000000000000000600052604160045260246000fd5b612766826123d1565b810181811067ffffffffffffffff821117156127855761278461272e565b5b80604052505050565b60006127986126e4565b90506127a4828261275d565b919050565b600067ffffffffffffffff8211156127c4576127c361272e565b5b6127cd826123d1565b9050602081019050919050565b82818337600083830152505050565b60006127fc6127f7846127a9565b61278e565b90508281526020810184848401111561281857612817612729565b5b6128238482856127da565b509392505050565b600082601f8301126128405761283f612724565b5b81356128508482602086016127e9565b91505092915050565b600080604083850312156128705761286f6126ee565b5b600061287e8582860161270f565b925050602083013567ffffffffffffffff81111561289f5761289e6126f3565b5b6128ab8582860161282b565b9150509250929050565b6000602082840312156128cb576128ca6126ee565b5b60006128d98482850161270f565b91505092915050565b600082825260208201905092915050565b60006128fe8261238b565b61290881856128e2565b93506129188185602086016123a7565b612921816123d1565b840191505092915050565b612935816124dd565b82525050565b6000604082019050818103600083015261295581856128f3565b9050612964602083018461292c565b9392505050565b612974816122bb565b82525050565b600060208201905061298f600083018461296b565b92915050565b600060208201905081810360008301526129af818461251b565b905092915050565b600067ffffffffffffffff8211156129d2576129d161272e565b5b6129db826123d1565b9050602081019050919050565b60006129fb6129f6846129b7565b61278e565b905082815260208101848484011115612a1757612a16612729565b5b612a228482856127da565b509392505050565b600082601f830112612a3f57612a3e612724565b5b8135612a4f8482602086016129e8565b91505092915050565b60008060408385031215612a6f57612a6e6126ee565b5b6000612a7d8582860161270f565b925050602083013567ffffffffffffffff811115612a9e57612a9d6126f3565b5b612aaa85828601612a2a565b9150509250929050565b6000606082019050612ac96000830186612245565b612ad66020830185612245565b612ae3604083018461296b565b949350505050565b612af4816124dd565b8114612aff57600080fd5b50565b600081359050612b1181612aeb565b92915050565b600060208284031215612b2d57612b2c6126ee565b5b6000612b3b84828501612b02565b91505092915050565b600081519050919050565b600082825260208201905092915050565b6000612b6b82612b44565b612b758185612b4f565b9350612b858185602086016123a7565b612b8e816123d1565b840191505092915050565b60006020820190508181036000830152612bb38184612b60565b905092915050565b7f4e487b7100000000000000000000000000000000000000000000000000000000600052603260045260246000fd5b7f4e487b7100000000000000000000000000000000000000000000000000000000600052602260045260246000fd5b60006002820490506001821680612c3157607f821691505b602082108103612c4457612c43612bea565b5b50919050565b7f4f6e6c7920746865206f776e65722063616e20706572666f726d20746869732060008201527f616374696f6e0000000000000000000000000000000000000000000000000000602082015250565b6000612ca66026836128e2565b9150612cb182612c4a565b604082019050919050565b60006020820190508181036000830152612cd581612c99565b9050919050565b600081905092915050565b60008190508160005260206000209050919050565b60008154612d0981612c19565b612d138186612cdc565b94506001821660008114612d2e5760018114612d4357612d76565b60ff1983168652811515820286019350612d76565b612d4c85612ce7565b60005b83811015612d6e57815481890152600182019150602081019050612d4f565b838801955050505b50505092915050565b6000612d8b8284612cfc565b915081905092915050565b7f496e76616c6964206261636b656e64206b657900000000000000000000000000600082015250565b6000612dcc6013836128e2565b9150612dd782612d96565b602082019050919050565b60006020820190508181036000830152612dfb81612dbf565b9050919050565b7f566f74657220686173206e6f7420766f74656420796574000000000000000000600082015250565b6000612e386017836128e2565b9150612e4382612e02565b602082019050919050565b60006020820190508181036000830152612e6781612e2b565b9050919050565b7f566f746520616c72656164792076616c69646174656400000000000000000000600082015250565b6000612ea46016836128e2565b9150612eaf82612e6e565b602082019050919050565b60006020820190508181036000830152612ed381612e97565b9050919050565b7f4e487b7100000000000000000000000000000000000000000000000000000000600052601160045260246000fd5b6000612f14826124dd565b91507fffffffffffffffffffffffffffffffffffffffffffffffffffffffffffffffff8203612f4657612f45612eda565b5b600182019050919050565b7f456c656374696f6e206973206e6f742063757272656e746c792072756e6e696e60008201527f6700000000000000000000000000000000000000000000000000000000000000602082015250565b6000612fad6021836128e2565b9150612fb882612f51565b604082019050919050565b60006020820190508181036000830152612fdc81612fa0565b9050919050565b7f596f75206861766520616c726561647920766f74656400000000000000000000600082015250565b60006130196016836128e2565b915061302482612fe3565b602082019050919050565b600060208201905081810360008301526130488161300c565b9050919050565b7f496e76616c69642063616e646964617465000000000000000000000000000000600082015250565b60006130856011836128e2565b91506130908261304f565b602082019050919050565b600060208201905081810360008301526130b481613078565b9050919050565b7f43616e64696461746520646f6573206e6f742065786973740000000000000000600082015250565b60006130f16018836128e2565b91506130fc826130bb565b602082019050919050565b60006020820190508181036000830152613120816130e4565b9050919050565b6000613132826124dd565b915061313d836124dd565b925082820390508181111561315557613154612eda565b5b92915050565b7f4e487b7100000000000000000000000000000000000000000000000000000000600052603160045260246000fd5b7f43616e64696461746520616c7265616479206578697374730000000000000000600082015250565b60006131c06018836128e2565b91506131cb8261318a565b602082019050919050565b600060208201905081810360008301526131ef816131b3565b9050919050565b60008190508160005260206000209050919050565b60006020601f8301049050919050565b600082821b905092915050565b6000600883026132587fffffffffffffffffffffffffffffffffffffffffffffffffffffffffffffffff8261321b565b613262868361321b565b95508019841693508086168417925050509392505050565b6000819050919050565b600061329f61329a613295846124dd565b61327a565b6124dd565b9050919050565b6000819050919050565b6132b983613284565b6132cd6132c5826132a6565b848454613228565b825550505050565b600090565b6132e26132d5565b6132ed8184846132b0565b505050565b5b81811015613311576133066000826132da565b6001810190506132f3565b5050565b601f82111561335657613327816131f6565b6133308461320b565b8101602085101561333f578190505b61335361334b8561320b565b8301826132f2565b50505b505050565b600082821c905092915050565b60006133796000198460080261335b565b1980831691505092915050565b60006133928383613368565b9150826002028217905092915050565b6133ab8261238b565b67ffffffffffffffff8111156133c4576133c361272e565b5b6133ce8254612c19565b6133d9828285613315565b600060209050601f83116001811461340c57600084156133fa578287015190505b6134048582613386565b86555061346c565b601f19841661341a866131f6565b60005b828110156134425784890151825560018201915060208501945060208101905061341d565b8683101561345f578489015161345b601f891682613368565b8355505b6001600288020188555050505b50505050505056fea2646970667358221220c89ad393c99075dceaa1b8781af4b424ba4e2ba0767560003353de215678dc5064736f6c63430008180033",
  "linkReferences": {},
  "deployedLinkReferences": {}
}